:400000000040002011000000990400009904000010B500F061FAC04610B512222E4B1A60302000F065FB2D4A2D4B1A60BC2292012C4B1A602C4B2D4919602D490A602D4AEB
:400040001A60FE2212022C490A602C4919602C490A602C4A1A60882189012B4A11602B4A1A60802189002A4A11602A4A1A60E8214901294A1160294A1A6082221206284BDE
:400080001A608022D202274B1A604523264A1360264A1360264A1360264A13604622264B1A60063A254B1A600132254B1A600332244B1A60023A244B1A600132234B1A6078
:4000C0002349072000F072FA072000F063FA0022204B1A6010BDC046300010400600008004010B40140301400000014045FF00801803014046FF00800003014040FF0080EC
:400100000403014041FF00801003014044FF00800803014042FF00800C03014043FF008008010B4000010B403801014034010140300101402C010140280101401C01014049
:4001400018010140100101400C01014008010140310800000C020B4010B572B60122494B1A7000240FE048486200131959000B00411889881A5AC31858880004104300F006
:4001800037F90134E4B2012CEDD93F4801000C31443000F013F93D4A3D4B1A60E0223D4B1A603D4A3D4B1A603D4A3E4B1A600E223D4B1A608B323D4B1A6099231B043C4A2A
:4001C00013603C493C4A1160802189043B4A11603B4A13603B4A13603B4A3C4B1A6001213B4B19603B4803783C22934314221343DBB20370384A107816230343DBB21370FE
:400200002F23364A13603648364A1060364A13602322364B1A60364A364B1A602023364A13602120354A10603A30354A10603548354A1060354A13600B22354B1A600632E1
:40024000344B1A60344A354B1A600223344A13604520344A10604138334A10604030334A1060334A13601338324A1060324A1360324B1960324B1960FFF7CEFE00F0CEF867
:4002800010BDC0461C700F40A41900000000FFFF0000024000010240000008080002024000EE080000030240000402400005024000500F400400990010500F4014500F4096
:4002C00020500F4030500F4010CC0C00E00120402000104001700F4000700F400000044000102700080004401800044000010440601C1800080104400C0104401801044061
:400300000002044040601800080204400C0204401802044000030440826D0000080304400C03044000040440080404401804044000050440080504401805044000060440AC
:400340001806044010B5064C2378002B07D1054B002B02D0044800E000BF0123237010BD480100200000000090190000084B10B5002B03D00749084800E000BF0748036889
:40038000002B00D110BD064B002BFBD09847F9E7000000004C01002090190000C00000200000000010B562B60249034800F08EFBFAE7C04694190000A0190000F0B5002575
:4003C000002711E0BB00C658F3B2FF22964308E06A008A181478A419527822700135013BDBB2002BF4D10137062FEBD9F0BDC04610B50A00002100F061FB10BD064B1B6824
:40040000002803D080221206134301E05B005B08014A13607047C04680033A4010B580231B060F4A136003220E490A600E480F4908600F480F4908600C200F4908600F49EE
:400440000A600F4A13600F4A0F4B1A600F4A104B1A6000220F4B1A600B38FFF7CFFF10BD000030403000304004400400800030400240040088003040C000304030003140CA
:4004800000003A400902430000033A400B00430040033A40000E3F4010B500F0E3FA03680C2B00D1FEE7FEE710B50300084A1068C318084A9A1A802A02DC054A136005E0EE
:4004C00000F0D0FA0C2303600120404210BDC046C40000209801002070B50F4E0F4D13E029686B68AC68002202E001C901C30432A242FAD1E868002202E0002102C304326D
:400500008242FAD11035013E002EE9D100F0B0FAFFF748FFFEE7C046010000000C1B000010B50E4A136801218B43136000230AE0032B03D89A000A49505800E00948990066
:40054000094A885001332F2BF2D9FFF705FE034A116801230B43136010BDC04600001040000000009904000000000020024A1168024B0B401360704700002240FFFFFFBFCE
:40058000034B18688023DB05184000D001207047000022401F2318401E3B8340014A13607047C04600E100E001BE704770B504000D001F2802D90020FFF7F6FF1034A400D5
:4005C00080239B059C4664442068256070BDC04610B5040006E0084B586800F07DF9074B9C46644480231B029C42F4D8024B9868604300F071F910BDC80000200080FFFF03
:4006000030B583B000F0BEF800285AD000F06DF9040000230AE02C4A12683F210A402B49C95C8A4201D1033303E001332D2BF2D90323274A1268D20606D1254802681F212B
:400640008A4313390A430260224A1168224A0A40224959438020C00184466144C90B01394905490D0A43A021490311430800192B02D81B4B1A430EE01A4A9A1812781A3B14
:400680001249C9183023CB5CD318FF2B00D9FF239B0502001A430F4B1A60134D2B680193302000F029F9114A13688021C9050B4313601420FFF78CFF019B2B60200000F0C6
:4006C00018F903B030BDC0462CFF0B40041A000034FF0B400800224000F800C040420F000000D43FCDF1FF0F300010400000224030B587B0040000F0F8F80500FFF740FF83
:40070000002803D0FFF732FF012100E00021104B1B6800930F4B1B680193033C0E4B1B5D02930E4B1B68039304AA0D4B04936B4605930C4B1A600C480C4A10601B680129FD
:4007400001D1FFF75DFF280000F0D3F807B030BD08010B4000010B40041A000030001040B6EA0000080010401700008004001040034B1868C0231B02184000D001207047DF
:4007800000010B40034B1B68002B01DA012000E0002070470000224010B500F0A6F8044A1368C02109020B43136000F0A2F810BD00010B4010B500F098F808490A68084B15
:4007C0001A408024E40122430A600A6813408022120213430B6000F08CF810BD00010B40FF3FFFFF70B5050000F07FF80400FFF7BFFF002803D0FFF7DDFF012100E0002109
:4008000008482840084A1568084B2B40184310601368012901D1FFF7BFFF200000F069F870BDC0460404040010020B40FBFBFBFF10B5244B1B685B0715D5234B5B685B07EA
:400840000ED5224B596A042001401F4C62688A4362605A6A82435A629B69002B00D098470420FFF7BFFF174B1B685B0518D5164B5B685B0510D5154B596A8022D2001140BE
:40088000114842688A434260596A114A0A405A62DB69002B00D098478020C000FFF7A2FF084B1B685B030CD5074B5B685B0304D5064B1B6A002B00D098478020C002FFF724
:4008C00091FF10BD10020B40DC00002064010020FFFBFFFF000000000230800803D00138FDD1C046C046C0467047EFF3108072B6704780F31088704770B50400FFF7F5FF42
:400900000500102C05D8104A136803218B43136016E0202C07D80C490B6803229343023A13430B600CE0302C07D807490B6803229343013A13430B6002E00020FFF734FE73
:400940002800FFF7D6FF70BD30001040002243088B4274D303098B425FD3030A8B4244D3030B8B4228D3030C8B420DD3FF22090212BA030C8B4202D31212090265D0030BAD
:400980008B4219D300E0090AC30B8B4201D3CB03C01A5241830B8B4201D38B03C01A5241430B8B4201D34B03C01A5241030B8B4201D30B03C01A5241C30A8B4201D3CB02A8
:4009C000C01A5241830A8B4201D38B02C01A5241430A8B4201D34B02C01A5241030A8B4201D30B02C01A5241CDD2C3098B4201D3CB01C01A524183098B4201D38B01C01ABA
:400A0000524143098B4201D34B01C01A524103098B4201D30B01C01A5241C3088B4201D3CB00C01A524183088B4201D38B00C01A524143088B4201D34B00C01A5241411A90
:400A400000D20146524110467047FFE701B5002000F006F802BDC0460029F7D076E770477047C046014B18687047C046440100200E4B70B500251E000D4CE41AA410A542EC
:400A800004D0AB00F35898470135F8E701F02CF8084B00251E00084CE41AA410A54204D0AB00F35898470135F8E770BDF41A0000F41A0000F41A0000FC1A00000300821818
:400AC000934202D019700133FAE770470FB40B4B13B51C68002C05D0A369002B02D1200000F050F805AB049AA1682000019300F065F916BC08BC04B01847C04644010020C5
:400B000010B5024900F0B0F810BDC046C5160000002310B5040003604360836081814366C281036143618361190008225C30FFF7C5FF054B24626362044BA362044BE362A4
:400B4000044B236310BDC046391300006113000099130000C513000070B568254B1E5D430E002900743100F0A1F8041E08D000212A00016046600C30A0606832FFF79EFFB4
:400B8000200070BD836913B50400002B28D18364C3640365134B144A1B6882620193984201D101238361200000F020F86060200000F01CF8A060200000F018F80022E0609D
:400BC00004216068FFF7A4FF01220921A068FFF79FFF02221221E068FFF79AFF0123A36113BDC046501A0000010B0000F8B51D4B06001D68AB69002B02D12800FFF7C2FF53
:400C00004835AC686B68013B05D40C22A75E002F10D06834F7E72B68002B01D02D68F0E704213000FFF798FF28600028F6D10C23336016E0012320005B42E3810233A381D5
:400C400067662760A760676027616761A7615C3008223900FFF732FF20006763A763A764E764F8BD501A0000F7B504000700002601914834002C16D06368A5680093009B78
:400C8000013B00930DD4AB89012B08D90E22AB5E013304D029003800019B984706436835EDE72468E6E73000FEBD0000032370B5CD1C9D43083506000C2D01D20C2501E0B3
:400CC000002D01DBA94202D90C23336048E0300000F0A7FD234B1C681A002100002913D00B685B1B0DD40B2B02D90B60CC181EE08C4202D1636813601AE04B6863600C00BB
:400D000016E00C004968E9E7174C2368002B03D1300000F0FFFA20602900300000F0FAFA431C18D00323C41C9C43A0420DD12560300000F077FD200007220B30231D9043D1
:400D4000C31A0ED05A42E2500BE0211A300000F0E1FA431CEBD10C233000336000F062FD002070BD900100208C010020936810B5013B9360002B05DA9469A34208DBCBB287
:400D80000A2B05D01368581C10601970C8B201E000F01EFB10BDF8B506000F001400D518AC4208D021783A003000FFF7DFFF0134431CF5D100E00020F8BD0000F0B59FB0AD
:400DC00006000F0002920593002804D08369002B01D1FFF7D7FE7F4B9F4201D1776808E07D4B9F4201D1B76803E07C4B9F4200D1F768BB891B070AD53B69002B07D000235B
:400E000006AD6B6120336B761033AB763DE03900300000F049FB0028F1D001204042D6E0059A111D12680591002A00DA7FE00992013423782E2B00D18DE0217803226848EF
:400E400000F0E4FC002807D0654B2A68C01A4023834013432B6001342178631C062261480293297600F0D2FC002800D19DE05E4B002B00D090E00722059B073393430833D2
:400E800005936B69039A9B186B61029C2378002B04D1029BE31A049312D003E0252BF8D00134F3E7049B029A39003000FFF773FF431C00D186E06A69049B944663446B61F3
:400EC0002378002B7ED00122002352426A6002A95432521801342B60EB60AB601370AB6521780522414800F091FC002808D03F4B2A68C01A0123834013432B600134EFE767
:400F00002B68DA0604D55322202102A8121811701A0704D553222B2102A81218117022782A2A00D17CE7099B00200A2105E05242EA60022213432B607AE72278303A092AD9
:400F400004D84B4301349B180120F6E7002800D16FE709936DE763782A2B0AD1059B02341A1D1B680592002B01DA01235B42079363E700230A201A0001346B60217830399C
:400F8000092904D84243013452180123F6E7002B00D152E7079250E705AB00933A00144B2900300000E000BF07E005AB00933A000F4B2900300000F08BF80390039B013336
:400FC00000D05EE7BB895B0600D526E70B981FB0F0BDC046541A0000741A0000941A0000BA1A0000BE1A000000000000B41A0000970D0000F7B5170001938A680B6900901B
:401000000C00934200DA130022003B6043321278002A01D001333B6023689B0602D53B6802333B60062523681D401ED0230043331B785A1E9341226892061CD53020E11811
:401040004331087021005A1C45310978A2184332023311700FE022000123193201990098089EB047431C0ED00135E3683A689B1A9D42F0DBDAE72200019943320098089DD4
:40108000A847431C02D10120404220E006232068E1683A6803400025042B03D18D1AEB43DB171D40A3682269934201DD9B1AED180027BD420AD0220001231A32019900987A
:4010C000089EB047431CDED00137F2E70020FEBDF0B58BB006920A0043320793059004920A7E0C00109B6E2A00D1ABE011D8632A22D009D8002A00D1B5E0582A00D0C5E09B
:4011000045310A70814A4FE0642A1DD0692A1BD0BCE0732A00D1AAE009D86F2A29D0702A00D0B3E0202209680A43226037E0752A1FD0782A33D0A9E00E001A684236111D3D
:40114000196013683370A4E021681A68080606D4490604D5111D19600023D55E02E0111D19601568002D3BDA2D23049A6D42137036E021681A68080606D4490604D5156826
:40118000111D1960ADB202E0111D196015685F4B227E039308276F2A1DD00A271BE022007821453211705A4A19680392081D226818600D68100602D4500600D5ADB2D30709
:4011C00002D520231A4322601027002D03D1202322689A4322602300002243331A7002E00A274A4B03936368A360002B09DB0422216891432160002D05D1049E002B11D07D
:401200007BE0002D79D0049E28003900FFF724FC039B013E5B5C280033703900FFF796FB051EF1D1082F09D12368DB0706D563682269934202DC3023013E3370049B9B1BD4
:4012400023612BE009681A68080607D4490605D5111D19601368A28A1A8004E0111D1960136862691A600023049E236116E01A68111D1960166800216268300000F0C6FAF6
:40128000002801D0801B6060636803E0260042363270012323610023049A1370079B09AA00932100069B0598FFF7A4FE431C02D10120404227E02369320006990598079DA7
:4012C000A847431CF4D0236800259B070FD4099BE068984217DA180015E022000123193206990598079EB047431CE1D00135E368099A9B1A9D42F0DBE9E72600039B4236DB
:401300001B7833708EE70BB0F0BDC046C51A0000D61A0000002370B5064C050008002360FFF7C2F8431C03D12368002B00D02B6070BDC0469401002070B50C000E25495FB3
:4013400000F0BEFA002803DB636D1B18636503E0A289024B1340A38170BDC046FFEFFFFFF8B51F008B8905000C001600DB0505D50E23C95E0022022300F0D0F9A289054B6F
:4013800028001340A38132000E23E15E3B0000F077F8F8BDFFEFFFFF70B50C000E25495F00F0BCF9A389421C03D1054A1340A38104E0802252011343A381606570BDC04691
:4013C000FFEFFFFF10B50E23C95E00F0E3F810BDF8B505000F001400002804D08369002B01D1FFF7CFFB234B9C4201D16C6808E0214B9C4201D1AC6803E0204B9C4200D1CB
:40140000EC68A369A360A3891B070AD52369002B07D023682269FEB2981A636998420FDB08E02100280000F03FF80028F1D0012040421DE02100280000F044F90028F6D140
:40144000A3680130013BA36023685A1C22601F706369984205D0A3893000DB0708D50A2E06D12100280000F02DF90028DFD13000F8BDC046541A0000741A0000941A00006E
:4014800070B50500080011000022064C22601A0000F076FA431C03D12368002B00D02B6070BDC04694010020364B70B51D6806000C00002D05D0AB69002B02D12800FFF7DE
:4014C00061FB314B9C4201D16C6808E02F4B9C4201D1AC6803E02E4B9C4200D1EC680C22A35E9AB2110723D4D10607D409220120326037321343A381404242E0530713D528
:40150000616B002908D023004433994202D0300000F08AF9002363632422A3899343A38100236360236923600822A3891343A3812369002B0BD1A0238022A1899B0092008B
:401540000B40934203D02100300000F021F90123A289134005D00023A36063695B42A36103E0920700D46369A36000202369834207D10C22A35E1A0603D540221343A381A8
:40158000013870BD44010020541A0000741A0000941A0000002370B5064C05000800236000F0C6F9431C03D12368002B00D02B6070BDC04694010020F7B58A8905000C00E1
:4015C00013075AD44B68002B02DC0B6C002B19DDE76A002F16D000232E682B6080235B011A4001D0606D14E00123216A2800B847431C0ED12B68002B0BD01D2B01D0162BB3
:4016000002D12E6000205AE04022A3891343A38155E0A3895B0706D56368C01A636B002B01D0236CC01A00230200216A2800E76AB847A389421C06D129681D293AD8204A95
:40164000CA40D20736D50022626022692260DB0405D5431C02D12B68002B00D16065616B2E600029CED023004433994202D0280000F0DAF80020606321E00F69002FC1D0DE
:401680000B680F60DB1B01930023920700D14B69A36003E0019B3F181B1A0193019B002BB0DD019B3A00216A2800A66AB0470028F0DCA389402201201343A3814042FEBD9D
:4016C000010040200B6970B505000C00002B01D100201CE0002804D08369002B01D1FFF751FA0B4B9C4201D16C6808E0094B9C4201D1AC6803E0084B9C4200D1EC680C225F
:40170000A35E002BE4D021002800FFF755FF70BD541A0000741A0000941A000070B50500080011000022064C22601A0000F018F9431C03D12368002B00D02B6070BDC04694
:401740009401002070B50E001D000E23C95E90B01400002906DA00232B60B3891B060FD540230FE001AA00F0BFF80028F3DBF023029A1B021340054A9B185A4253412B604A
:401780008023DB000020236010B070BD00E0FFFFF7B502268B8905000C00334210D101AB6A46FFF7CFFF009907002800FFF77EFA00280CD10C22A35E9A0523D43343A38134
:4017C0002300473323602361012363611AE080220D4BAB62A38920601343A381009B20616361019B002B0AD00E23E15E280000F08DF8002803D00122A3891343A381A389B8
:401800001F43A781F7BDC046010B0000C9B28218904204D003788B4202D00130F8E70020704770477047000070B50500002944D00C1F2368002B00DAE4182800FFF7F1FF02
:401840001E4A13681100002B02D16360146031E0A3420DD92268A018834203D118685B688218226063600C6024E0A24203D813005A68002AF9D11E689819A0420BD12168F0
:40188000711858181960824214D110685268411819605A600EE0A04202D90C232B6009E021686018824203D1106852684118216062605C602800FFF7B5FF70BD900100202E
:4018C00070B50500080011000022064C22601A0000F04EF8431C03D12368002B00D02B6070BDC04694010020002370B5064C050008001100236000F023F8431C03D123682F
:40190000002B00D02B6070BD94010020002370B5064C05000800236000F01AF8431C03D12368002B00D02B6070BDC0469401002058220120014B40421A6070479401002098
:4019400058220120014B40421A607047940100205822024B00201A607047C0469401002058220120014B40421A6070479401002058220120014B40421A60704794010020A7
:4019800058220120014B40421A607047940100200000000068656C6C6F20776F726C64002573000000300F40000400400F40000438223E1158045F011C401D2089208C405B
:4019C0002E046A04CA80DA400A404240C210D04070017410DC0388108C019402A410E002E40102011101000004320F4004330F4004400F4004410F4003420F4006430F40B8
:401A000002600F40030405060708090A0B0C0E0F101112131415161718191B1C1D1E1F2021222325262728292A2B2E2F3031323334350000EEDBC9B9AA9B8E82766B6056CE
:401A40004D443B332C241D17100A044300000000E400002000000000000000000000000000000000000000000000000000000000000000000000000000000000000000007E
:401A800000000000000000000000000000000000000000000000000000000000000000000000000000000000000000000000000000000000232D302B2000686C4C00656670
:401AC00067454647003031323334353637383941424344454600303132333435363738396162636465660000F8B5C046F8BC08BC9E4670476D03000021050000F8B5C0469A
:401B0000F8BC08BC9E46704745030000201B0000C00000208800000050000000000000000000000098010020010000000000C05D80BB000030000000006CDC02F0000000DB
:401B40000404040000000000541A0000741A0000941A0000000000000000000000000000000000004B1A00000000000000000000000000000000000000000000000000004A
:401B8000000000000000000000000000000000000000000000000000000000000000000000000000E400002000000000000000000000000000000000000000000000000021
:401BC00000000000000000000000000000000000000000000000000000000000000000000000000000000000000000000000000000000000000000000000000000000000E5
:401C000000000000000000000000000000000000000000000000000000000000000000000000000000000000000000000000000000000000000000000000000000000000A4
:401C40000000000000000000000000000000000000000000000000000000000000000000000000000000000000000000000000000000000000000000000000000000000064
:401C80000000000000000000000000000000000000000000000000000000000000000000000000000000000000000000000000000000000000000000000000000000000024
:020000040001F9
:0200000490303A
:02000000541694
:0200000490402A
:4000000000000000000000000000000000000000000000000000000000000000000000000000000000000000000000000000000000000000000000000000000000000000C0
:400040000000000000000000000000000000000000000000000000000000000000000000000000000000000000000000000000000000000000000000000000000000000080
:0200000490501A
:0C0000000002112D11A10001113565B79F
:0200000490600A
:0100000001FE
:00000001FF